:020000040800F2
:10000000B812002031020008C71C0008A11B00081C
:10001000C51C00087D0700082540000800000000FE
:10002000000000000000000000000000D71C0008D5
:10003000D107000800000000D51C0008D91C0008EA
:100040004B0200084B0200084B0200084B0200085C
:100050004B0200084B0200084B0200084B0200084C
:100060004B0200084B0200084B0200084B0200083C
:100070004B0200084B0200084B0200084B0200082C
:100080004B0200084B0200084B0200084B0200081C
:100090004B0200084B0200084B0200084B0200080C
:1000A0004B0200084B0200084B0200084B020008FC
:1000B0004B0200084B0200084B0200084B020008EC
:1000C0004B0200084B0200084B0200084B020008DC
:1000D0004B0200084B0200084B0200084B020008CC
:1000E0004B0200084B0200084B0200084B020008BC
:1000F0004B0200084B0200084B0200084B020008AC
:100100004B0200084B0200084B0200084B0200089B
:100110004B0200084B0200084B0200084B0200088B
:100120004B0200084B0200084B0200084B0200087B
:100130004B0200084B0200084B0200084B0200086B
:100140004B0200084B0200084B020008C91C0008C3
:100150004B0200084B0200084B0200084B0200084B
:100160004B0200084B0200084B0200084B0200083B
:100170004B0200084B0200084B0200080000000080
:100180004B0200084B02000800F002F800F040F8B3
:100190000AA090E8000C82448344AAF10107DA45E2
:1001A00001D100F035F8AFF2090EBAE80F0013F0F4
:1001B000010F18BFFB1A43F00103184790540000C9
:1001C000B0540000103A24BF78C878C1FAD852075A
:1001D00024BF30C830C144BF04680C6070470000C1
:1001E0000023002400250026103A28BF78C1FBD840
:1001F000520728BF30C148BF0B6070471FB505F0DC
:1002000008FA9DE8030000F0DFF91FBD10B510BD2E
:1002100000F036FA1146FFF7F1FF04F033FF00F06B
:1002200054FA03B4FFF7F2FF03BC00F081FA0000B8
:100230000948804709480047FEE7FEE7FEE7FEE77A
:10024000FEE7FEE7FEE7FEE7FEE7FEE704480549B6
:10025000054A064B70470000711D0008890100081F
:10026000B80C0020B8120020B80E0020B80E0020F4
:1002700070B5064600F08CF9056806F10B0020F019
:100280000704B4429CBF002070BD2B466A68BAB117
:100290001068A04210D304F1080188423CBF5068A6
:1002A000586007D35168101941601168091B01603B
:1002B00058601460101D70BD13465268002AE7D1C3
:1002C0002146284600F06CF90028DED170BD70B5DB
:1002D0000446051F00F05CF90068002C14BF446858
:1002E00070BD002C18BFAC423CBF20466468F8D3F8
:1002F00001680A18AA4218BF456003D12A6805465A
:100300001144016028684119A1421CBF6C6070BD96
:100310006168696021680844286070BD53EA020C76
:1003200000F069802DE9F04B4FF00006002B1FBF55
:10033000B3FA83F503FA05F424FA05F65E4012BF1A
:100340001643B2FA82F502FA05F4C5F120051EBF84
:1003500022FA05FC44EA0C04203556EA044C4FEA24
:10036000144418BF641C4FF000084FF0000990427D
:1003700071EB030C39D3002919BFB1FA81F701FAE7
:1003800007F6B0FA80F700FA07F6C7F120071EBF9C
:1003900020FA07FC46EA0C062037B6FBF4FCA7EB74
:1003A0000507103F07F01F0BCBF120060CFA0BFBE3
:1003B0002CFA06F644BFB3460026202FA4BF5E46A3
:1003C0004FF0000B5BEA060C08BF4FF0010B19EB76
:1003D0000B09ABFB027C48EB0608C01B06FB02CCFA
:1003E0000BFB03CC71EB0C01C1E70B460246414607
:1003F0004846BDE8F08B13B54FF000004FF0000108
:10040000AFF30080BDE81C407047032A40F2308003
:1004100010F0030C00F0158011F8013BBCF1020F45
:10042000624498BF11F801CB00F8013B38BF11F8C6
:10043000013BA2F1040298BF00F801CB38BF00F8DD
:10044000013B11F0030300F02580083AC0F008805A
:1004500051F8043B083A51F804CBA0E80810F5E73E
:10046000121D5CBF51F8043B40F8043BAFF3008021
:10047000D20724BF11F8013B11F801CB48BF11F896
:10048000012B24BF00F8013B00F801CB48BF00F866
:10049000012B704710B5203AC0F00B80B1E818501E
:1004A000203AA0E81850B1E81850A0E81850BFF45E
:1004B000F5AF5FEA027C24BFB1E81850A0E81850FD
:1004C00044BF18C918C0BDE810405FEA827C24BF51
:1004D00051F8043B40F8043B08BF7047D20728BFDF
:1004E00031F8023B48BF11F8012B28BF20F8023B2E
:1004F00048BF00F8012B70474FF000020429C0F0FC
:10050000128010F0030C00F01B80CCF1040CBCF145
:10051000020F18BF00F8012BA8BF20F8022BA1EB97
:100520000C0100F00DB85FEAC17C24BF00F8012B7C
:1005300000F8012B48BF00F8012B70474FF0000274
:1005400000B5134694469646203922BFA0E80C50C9
:10055000A0E80C50B1F12001BFF4F7AF090728BFA4
:10056000A0E80C5048BF0CC05DF804EB890028BF20
:1005700040F8042B08BF704748BF20F8022B11F049
:10058000804F18BF00F8012B7047704770477047C5
:1005900000487047600C00207047704770477047F4
:1005A00038B504460A4600206946AFF300800028AB
:1005B00008BF38BD02460099204600F03FF80120F0
:1005C00038BD012000F054B8F8B5AFF300800546FF
:1005D00000200C46102000BF0646A819A0420DD9E5
:1005E000324669460020AFF30080070008BF00F0E4
:1005F0003FF80098A04218BF0546C419FFF7C8FF8E
:1006000005600746F01D20F007004619284600F057
:100610000AF8B44208BFF8BDA21B31463868BDE8ED
:10062000F84000F00BB800210160C0E901107047EC
:100630001020704700487047580C0020034640685F
:100640008C46002818BF88423CBF03464068F8D358
:1006500018681844884207D00CF1030020F0070006
:10066000001D411A521A0146081D0A60FFF72FBEED
:1006700010B500F035F8BDE8104000F02CB8704718
:100680007546FFF7D7FFAE4605006946534620F092
:100690000700854618B020B5FFF7D8FDBDE820401B
:1006A0004FF000064FF000074FF000084FF0000B2E
:1006B00021F00701AC46ACE8C009ACE8C009ACE8E1
:1006C000C009ACE8C0098D4670470446AFF300800E
:1006D0002046FFF7A6FD002801D000F029B870479A
:1006E00010B5012805D0002103A000F027F8012053
:1006F00010BD09A1F8E7000053494752544D454D3C
:100700003A204F7574206F662068656170206D65B2
:100710006D6F7279000000003A2048656170206DAD
:10072000656D6F727920636F7272757074656400A5
:1007300001491820ABBEFEE72600020070B5054651
:100740000C460A2000E06D1C00F011F835B1287845
:100750000028F8D102E0641C00F009F814B12078F8
:100760000028F8D1BDE870400A20AFF3008008B53A
:1007700069468DF800000320ABBE08BDFEE700000F
:1007800010B500224FEA020100EB8203521CC3F8AD
:100790008413102AF8D300224FF400738418521CDB
:1007A00084F81C119A42F9D30170417001228270C1
:1007B000C0F8C413027640238371417680F81C137D
:1007C00080F81D2380F81F1380F81E13002010BD31
:1007D000704772B6FEE70022AFF3008030B50E4BD3
:1007E000054601205C7A002C14D1587A1C54587AA2
:1007F00003EB800045605D7A03F108002A54587AC3
:10080000421C5A72303008703A2048702F2088708D
:10081000CC70002030BD00004C0C002070B50446A8
:1008200000F00CF90546601C02D00448007804442E
:1008300000F004F9401BA042FAD370BD7400002000
:100840002DE9F84FDFF8BCA10022012503264FF067
:100850000F090AF1040BAAF1040E00BF0B6805FA98
:1008600002F42340A34270D10F7907F00307012F50
:1008700001D0022F16D187684FEA420806FA08FC19
:1008800027EA0C07D1F80CC00CFA08FC4CEA070C5C
:10089000C0F808C04768A7430C79C4F3001494401B
:1008A0003C4344600C79E443A4070AD0C4684FEA8F
:1008B000420C06FA0CF7BC438F6807FA0CF7274383
:1008C000C7600C7904F00304022C12D1D40800EBA9
:1008D000840CDCF820405707FF0E09FA07F824EAD9
:1008E0000804D1F8108008FA07F848EA0408CCF8A0
:1008F000208004684FEA420C06FA0CF7BC430F79DB
:1009000007F0030707FA0CF7274307604C6814F455
:10091000403F70D03C4C276847F4804727602468EC
:1009200022F0030704F480440094384C07EB040CD5
:10093000DCF8084897074FEA177809FA08F7BC432C
:10094000334FB84202D1002724E054E0314FB8427F
:1009500001D101271EE0304FB84201D1022719E032
:100960002E4FB84201D1032714E02D4FB84201D1D8
:1009700004270FE02B4FB84201D105270AE02A4F88
:10098000B84201D1062705E0284FB84201D1072718
:1009900000E0082707FA08F72743CCF80878DAF8C8
:1009A00000405746D1F804C09C435FEACC2C00D5E8
:1009B0001C433C60DBF800405F46D1F804C09C4318
:1009C0005FEA8C2C00D51C433C60DEF80040774683
:1009D000D1F804C09C435FEA8C3C00D51C433C60CA
:1009E000084F083F3C68D1F804C09C435FEACC3C08
:1009F00000D51C433C60521C102AFFF42FAFBDE809
:100A0000F88F0000083C01404438024000300140AB
:100A1000000002400004024000080240000C0240B6
:100A2000001002400014024000180240001C024066
:100A30000AB1816170470904FBE700000148806842
:100A40007047000074000020D0F8000301F08FBD53
:100A5000D0F8000301F095BD006803F001B800680C
:100A600003F002B801EB410202EBC10100EB81008F
:100A700090F86000704701EB410202EBC10100EB0E
:100A80008100006D704710B5044690F8F802012807
:100A900009D0012084F8F802206802F0F0FF00205D
:100AA00084F8F80210BD022010BD2DE9FE43054672
:100AB000DDE90B7095F8F842DDF828C0012C1ED056
:100AC00001EB410404EBC1044FF0010905EB840480
:100AD00085F8F892002684F83D6084F83830A4F850
:100AE000400084F8391084F83F7002F07F0884F8E1
:100AF0003A805FEA026805D584F83B9004E0022062
:100B0000BDE8FE8384F83B6084F83CC0CDF800C0AB
:100B1000CDE90170286803F015F885F8F862EFE771
:100B200070472DE9F00301EB4104DDE906C9DDE979
:100B3000087504EBC10400EB8404022684F83B2012
:100B400084F83F30BCF1000F0AD084F842600025E1
:100B50006BB1012B2FD0022B12D0032B16D10FE03B
:100B60004FF0030884F8428084F83D50EFE7BCF171
:100B7000010F0BD152B9DFB9012284F8552003E0EF
:100B8000B2B194F85420B2B184F84260C4F84490F1
:100B9000E76484F86050256584F8391084F8615062
:100BA000027C04F138010068BDE8F00303F053B89B
:100BB00094F85520E7E784F84250E7E72DE9F04143
:100BC00006680446304602F056FF012875D12068B9
:100BD00003F065F9002870D0206803F060F9800206
:100BE00003D521684FF400104861206803F057F9DD
:100BF000C00203D521684FF480104861206803F0DB
:100C00004EF9400103D521684FF0806048612068AB
:100C100003F045F9800702D5216802204861206869
:100C200003F03DF9800015D521684FF00050486170
:100C3000D6F84004C0070DD11021304602F0F0FE76
:100C4000304602F0CFFE0121206803F00DF9204666
:100C5000FFF7FEFE206803F022F9C00102D520460E
:100C600000F00EFF206803F01AF9000705D52046B2
:100C700000F0C7F8216808204861206803F00FF9E8
:100C8000C043C0060CD42068816921F01001816145
:100C9000204600F03FFF2068816941F0100181612A
:100CA000206803F0FCF8800123D5206802F0CFFF14
:100CB000074600254FF0010814E01AE005F00F0187
:100CC00008FA01F038420CD006EB4510D0F80005C8
:100CD000E9B20004204602D500F0CFFC01E000F0AC
:100CE000C1FD6D1CA068A842E8D821684FF00070D3
:100CF0004861BDE8F08170B58AB0040005D094F871
:100D0000F9022568002618B107E001200AB070BD7D
:100D100084F8F862204600F027F8032084F8F902EE
:100D2000E86BC00500D42661206802F027FE04F1BC
:100D3000100128220D466846FFF7ACFB94E80F002F
:100D400002F0C2FD0121206803F0E5F828222946BF
:100D50006846FFF79FFB94E80F0003F01DF80120A1
:100D600084F8F9020020D1E710B586B004461421BA
:100D70006846FFF7E3FB2068B0F1A04F2FD1194878
:100D80000021026842F001020260006800F00100E8
:100D900005904FF4C05000900220CDE901010320DE
:100DA00003900A20049069460F48FFF749FD0D485B
:100DB000001D016841F0800101600A48143001689B
:100DC00041F4804101600068002200F480400590F9
:100DD0000521432000F0AAF8432000F099F806B05E
:100DE00010BD00003038024000000240D0F800037F
:100DF00001F05ABCD0F8000301F05ABC006803F0BF
:100E000071B8D0F8000301F00ABC10B5044690F8A0
:100E1000F80201280DD0012084F8F8020121206891
:100E200002F0C4FD206802F0D7FD002084F8F8022B
:100E300010BD022010BD10B5044690F8F80201283C
:100E400009D0012084F8F802206803F092F800200D
:100E500084F8F80210BD022010BD0000024881682D
:100E60000278114481607047740000200B4810B56F
:100E7000016841F400710160016841F48061016022
:100E8000016841F480710160032000F06FF80F20C9
:100E900000F006F800F024F8002010BD003C0240ED
:100EA00070B50D4D04464FF47A712878B1FBF0F01F
:100EB0000A490968B1FBF0F000F00AFB48B9102CB0
:100EC00007D200222146501E00F030F800206C604E
:100ED00070BD012070BD0000740000208000002063
:100EE0000A4808B5016841F480410160006800F4D7
:100EF000804000900548001F016841F0805101606A
:100F0000006800F08050009008BD000044380240A6
:100F1000002809DB00F01F020121914040098000F8
:100F200000F1E020C0F8001170470000F0B40E4B53
:100F30001B680C46C3F30223C3F10705042D00D937
:100F40000425191D072901D2002300E0DB1E01261C
:100F500006FA05F1491E214099409E40761E164032
:100F60003143F0BC03F05FB80CED00E0064900F03F
:100F7000070208684FF6FF03184040EA0220034AC0
:100F800010430860704700000CED00E00000FA0517
:100F90002DE9F0470E46050065D0DFF81481D8F83A
:100FA0000000F7B200F00700B04207D288F80070E6
:100FB000D8F8000000F00700B04254D128683D4C3A
:100FC000810712D5400703D5206840F4E050206027
:100FD0002878000703D5206840F46040206020682E
:100FE000A96820F0F000084320602878C0072DD0C1
:100FF000304968680839012812D0022813D0032824
:1010000011D00968890700292DDA216821F0030130
:1010100001432160FFF712FD814641F2883A0EE05C
:1010200009688903EFE709688901ECE7FFF706FD26
:10103000A0EB0901514502D90320BDE8F0872068E3
:10104000696800F00C00B0EB810FEFD1D8F8001008
:10105000404601F00701B14207D90770006800F06F
:101060000700B04201D00120E7E72878400705D506
:101070002068E96820F4E0500843206028780007E1
:1010800006D52068296920F4604040EAC10020604C
:1010900000F038F82168084AC1F30311515CC840D8
:1010A0000649086006480068FFF7FAFE0020C4E71A
:1010B000003C024008380240305600088000002002
:1010C000780000200448054900680968044AC1F313
:1010D0008221515CC84070478000002008380240DF
:1010E000405600080448054900680968044AC1F3ED
:1010F0004231515CC84070478000002008380240EF
:1011000040560008154810B5006810F00C0214484D
:1011100013D04110042A0FD0082A0ED10F4C241FDF
:101120002268236802F03F025B0207D52068C0F303
:101130008810A0FB010106E0084610BD2168C1F33C
:101140008811A1FB00010023FFF7E8F82168C1F333
:101150000141491C4900B0FBF1F010BD08380240C4
:101160000024F4002DE9F84F04006ED02078DFF859
:101170004C93C007A9F104054AD009F104000168A5
:10118000C1F38101012908D00068C0F38100022861
:101190000AD1D9F80000400206D52868800337D567
:1011A00060680028E1D033E06068B0F5803F10D07F
:1011B000B0F5A02F286810D020F48030286028686F
:1011C00020F4802028606068A8B1FFF737FC06464D
:1011D0000DE0286840F48030F4E740F48020286077
:1011E000F7E700BFFFF72AFC801B642873D8286844
:1011F0008003F7D50CE0FFF721FC064605E000BFB1
:10120000FFF71CFC801B6428F0D828688003F7D403
:101210002078DFF8AC8280074FF0000A3ED5A7485F
:10122000001D016811F00C0F08D00068C0F38100A8
:1012300002280BD1D9F80000400207D428688007A3
:1012400016D5E068012800D112E033E1E068B8B1BA
:101250000120C8F80000FFF7F1FB064605E000BFDB
:10126000FFF7ECFB801B0228C0D828688007F7D561
:101270002868216920F0F80040EAC10028600DE0EC
:10128000C8F800A0FFF7DAFB064604E0FFF7D6FB3C
:10129000801B02281FD828688007F7D42078000711
:1012A00022D5864F87486169703771B1012101608D
:1012B000FFF7C4FB064604E0FFF7C0FB801B0228D3
:1012C00009D838688007F7D50EE0C0F800A0FFF70E
:1012D000B5FB064605E082E0FFF7B0FB801B022865
:1012E0007DD838688007F7D42078400768D5DFF8C4
:1012F000CCB100270BF13C0BDBF80000C0000BD495
:10130000DBF8001041F08051CBF80010DBF8000052
:10131000012700F0805000906B4E3068C00510D45B
:10132000306840F480703060FFF788FB009005E083
:10133000FFF784FB0099401A022850D83068C00596
:10134000F6D55E4EA0686C3601280FD005283068AF
:1013500010D020F001003060306820F004003060D0
:10136000A068B8B1FFF76AFB00900FE0306840F06A
:101370000100F4E740F004003060F7E7FFF75EFBA0
:101380000099411A41F28830814266D8306880075E
:10139000F4D50EE0FFF752FB009007E0FFF74EFB9D
:1013A0000099411A41F28830814256D8306880074E
:1013B000F4D42FB1DBF8001021F08051CBF80010ED
:1013C000A069C8B33D49091D0968C1F3810102291B
:1013D0004AD00228504607D0C8F8600000E03CE040
:1013E000FFF72CFB04463BE04746C8F86000FFF7D8
:1013F00025FB064605E000BFFFF720FB801B022807
:101400002BD828688001F7D4D4E907010843A16AE2
:101410002E4A490802EB0141626A41EA82110843FF
:1014200094F82C1040EA0161C9F8001001203866D8
:10143000FFF704FB044606E03EE000BFFFF7FEFABC
:10144000001B022809D828688001F7D534E000BFC6
:10145000FFF7F4FA001B022802D90320BDE8F88F39
:1014600028688001F4D427E00128F7D0D9F80000DB
:10147000E26900F4800191421CD1226A00F03F0130
:10148000914217D147F6C071626A0140B1EB821FE9
:1014900010D1A26A4FF0FF3300F4403103EB520247
:1014A000B1EB024F06D194F82C1000F07060B0EB55
:1014B000016F01D00120D1E70020CFE704380240BE
:1014C00000004742800E4742007000400000FFFFCE
:1014D00010B5401EB0F1807F01D3012010BD4FF048
:1014E000E02460610F21601702F09DFD0020A061E3
:1014F00007202061002010BD70B5040004D094F8CE
:101500003D00002510B106E0012070BD84F83C507C
:10151000204600F023F8242084F83D002068C168AC
:1015200021F40051C160204600F02AFC20680169C6
:1015300021F4904101612068416921F02A01416153
:101540002068C16841F40051C1602564202084F8FE
:101550003D0084F83E00002070BD000010B586B04C
:10156000044614216846FEF7E9FF144920688842C2
:1015700021D113480021026842F010020260006885
:1015800000F0100005900E481438026842F0010285
:101590000260006800F0010005904FF4C060009008
:1015A0000220CDE901010320039007200490694641
:1015B0000448FFF745F906B010BD000000100140D7
:1015C00044380240000002402DE9F843044690F8F8
:1015D0003D001F4616460D4620284CD1C5B1BEB170
:1015E00094F83C00012846D0012084F83C004FF0DC
:1015F0000008C4F84080212084F83D00FFF71EFA5F
:10160000A6848146E684A068B0F5805F03D004E03C
:101610000120BDE8F883206928B12E465FF000055F
:1016200084F83C800EE00026FAE78021204600F096
:101630002DFCA0B9AEB116F8010B21684860E08C12
:10164000401EE084E08C4B464FF0000200970028DB
:10165000EBD14FF04001204600F018FC30B10320E0
:10166000D7E735F8020BC0F30800E6E7202084F83E
:101670003D000020CDE70220CBE72DE9F0470746EB
:1016800000680D4600EB4116D6F8080501EB410352
:10169000420703EBC5014FF006004FF004084FF07E
:1016A000050A07EB810401D541463CE0D6F8081550
:1016B000C90507D54FF48070C6F80805072084F8DF
:1016C00061001CE0D6F80815890603D52020C6F86D
:1016D000080518E0D6F808150A074FF0080104D5E8
:1016E000C6F8081584F861A009E0D6F80825520567
:1016F00014D54FF48060C6F8080584F861102946B7
:10170000386802F0BCF9D6F8080580050ED52946E0
:10171000386802F0B4F94FF40070A0E0D6F808156C
:101720000906F0D58021C6F80815C8E7D6F80805DF
:101730004FF00001C0074FF010094FF001023BD0FD
:10174000386930B1A06CD6F81035C3F31203C01A53
:10175000206584F86120E165C6F8082594F83F000B
:1017600030B1022804D0032809D0012807D012E0A4
:101770002946386802F083F9C6F808950BE0D6F8D8
:10178000000540F00050C6F8000584F860202946A6
:101790003846FFF7C5F93869012806D1B4F840107A
:1017A000A06CB0FBF1F0C00704D014F8540F80F027
:1017B00001002070BDE8F087D6F80805800735D510
:1017C00094F86100022301280AD005280BD00628CE
:1017D0000CD008280AD003280FD0072818D01CE006
:1017E00084F8602019E084F860A016E0E06D401CE9
:1017F000E065022801D9E1650DE084F86030D6F893
:10180000000520F0804040F00040C6F8000504E0EC
:10181000E06D401CE06584F86080C6F8083594F8F7
:10182000602029463846FFF77BF9C3E7D6F808055C
:10183000C006BFD594F83F00032803D020B102288A
:1018400002D00BE0E16505E0E165386930B90320BD
:1018500084F861002946386802F011F94846C6F854
:101860000805A7E72DE9F047026802EB4114D4F818
:10187000082501EB4103550703EBC1034FF00402B8
:101880004FF0060A00EB830304D5C4F8082583F85B
:1018900061A051E0D4F808554FF00007AD064FF0B5
:1018A000020C0BD52022C4F8082593F83D20012A0C
:1018B00033D183F83D7083F860C03DE0D4F808551B
:1018C000AD0504D54FF40072C4F8082534E0D4F80F
:1018D00008554FF001065FEAC5784FF040050DD07E
:1018E000DF65D4F80825520603D583F83D60C4F8B7
:1018F0000855C4F8086583F861601DE0D4F80885D0
:101900005FEA48680BD583F8612083F83D60DF65A6
:10191000006802F0B4F8C4F80855BDE8F087D4F8C0
:1019200008554FF008095FEA05784FF0050508D51E
:10193000C4F8089583F861500068BDE8F04702F0EC
:101940009EB8D4F808855FEAC86810D50322DF6521
:1019500083F8612093F83D2022B993F83C200AB91E
:1019600083F83D60006802F08AF810201AE0D4F88D
:1019700008855FEA086818D5056955B1DD6D6D1CED
:10198000DD65022D0BD9DF6583F86020FFF7C8F80D
:1019900007E083F861A0006802F071F801E083F8C5
:1019A00060C08020C4F80805B7E7D4F808855FEA6E
:1019B000485807D583F86190006802F060F84FF44A
:1019C0008060EFE7D4F808855FEA8878A5D593F8BA
:1019D0006180B8F1010F0FD0B8F1030F30D0B8F12A
:1019E000040F2DD0B8F1050F2DD0B8F1060F2DD072
:1019F000B8F1080F2AD03CE083F8606093F83F20EC
:101A0000022A01D0032A34D102692AB993F8552059
:101A100082F0010283F855200269012A29D1DA6C8B
:101A20003AB3B3F840502A44521EB2FBF5F2D20743
:101A30001FD093F8552082F0010283F8552018E05A
:101A400083F860C015E083F8605012E0DD6D6D1C16
:101A5000DD65022D03D9DF6583F8602009E083F896
:101A600060C0D4F8002522F0804242F00042C4F861
:101A70000025C4F808C593F86020FFF751F84CE73B
:101A80007CB504680546D4F840040190D4F84004BD
:101A900020F02E0000900198800709D50198C0071A
:101AA00002D02846FEF7D0FF009840F002000090D8
:101AB0000198000724D5009840F008000090019894
:101AC00040071AD5A869022803D0E86801280CD07D
:101AD0000FE00198C0F341400228286803D001219B
:101AE00002F0C2F905E00221FAE74EF66020C4F8E0
:101AF00004042846FFF77EF902E02846FFF776F94E
:101B000001988006009802D540F020000090C4F8AB
:101B100040047CBD2DE9F041024600680646016A9A
:101B2000C1F3434301F00F07C1F30A15022B31D172
:101B3000002D2FD007EB470101EBC70102EB810419
:101B4000616C002926D0226DE36C2A449A4223D886
:101B50002A4602F0A8F9606C28446064206D28448D
:101B6000206506EB4710D0F81015B4F84020C1F3FB
:101B7000C941AA420ED100290CD0D0F8001521F09D
:101B8000804141F00041C0F8001514F8540F80F076
:101B900001002070BDE8F081042084F86000F9E7BE
:101BA000FEE7000020B1012208210248FEF740BFF5
:101BB0000022F9E70000024010B504490448FEF78E
:101BC0000AFE0249491E087010BD00006D00002089
:101BD0001C56000830B587B014216846FEF7AEFCED
:101BE00015480024016841F004010160016801F01A
:101BF00004010591016841F080010160016801F074
:101C000080010591016841F00101016000680B4D00
:101C100000F001000590002208212846FEF708FF89
:101C2000082000900120CDE901046946284603946C
:101C3000FEF706FE07B030BD30380240000002401B
:101C40000C4810B50A4901604FF4E13141600021B0
:101C500081600C22C160C0E904128161C161FFF79B
:101C60004BFC002803D0BDE81040FEF7B2BD10BD0C
:101C700000100140AC00002010B501220B490C48B7
:101C800000F04DFC08B1FEF7A4FD0A49084801F038
:101C900035FD08B1FEF79DFD054801F072FD0028F5
:101CA00003D0BDE81040FEF794BD10BD9937000881
:101CB000500500208C000020014801F001BC00000C
:101CC00050050020FEE7FEE70148FEF777BF000061
:101CD0002809002070477047FFF7C0B830B593B0AF
:101CE00030216846FEF72AFC14210CA8FEF726FCDA
:101CF0001D480025016841F080510160006800F036
:101D0000805011901948016841F4804101600068D9
:101D1000022400F480401190012000900004019002
:101D20008001CDE9064004200890A820CDE90904EF
:101D300007200B906846FFF715FA08B172B6FEE768
:101D40000CA90F2081E831004FF4A0500F904FF400
:101D50008050109005210CA8FFF71AF9002801D037
:101D600072B6FEE713B030BD40380240007000404C
:101D70000248016841F470010160704788ED00E09D
:101D800070B5044600680169E26821F440511143CE
:101D900001612169A068E269084361691143084350
:101DA0002168CA6849F20C639A430243CA602068FA
:101DB0004169A26921F440711143416131492068B0
:101DC000884202D03049884202D1FFF78BF901E006
:101DD000FFF778F9E2690023192164253226B2F56C
:101DE000004F626828D0A0FB0101930F9200FEF71C
:101DF00095FA0146B0FBF5F06FF01802504301EB85
:101E0000800006EB0010B0FBF5F000F0F002B1FB33
:101E1000F5F002EB0012B1FBF5F06FF01803584338
:101E200001EB800006EB0010B0FBF5F000F00F00B6
:101E300021681044886070BDA0FB010192185B41CD
:101E4000FEF76CFA0146B0FBF5F00201B1FBF5F0CC
:101E50006FF01803584301EB800006EBC000B0FBA5
:101E6000F5F000F0F80002EB4002B1FBF5F058434A
:101E700001EB800006EBC000B0FBF5F000F00700BE
:101E8000D6E7000000100140001401402DE9F041A8
:101E9000984617460E460446069D27E0681C25D046
:101EA0002DB1FEF7CBFDA0EB0800A8421ED920689B
:101EB0000C3050E8001F21F4D07140E80012002AD5
:101EC000F5D12068143050E8001F21F0010140E8EE
:101ED0000012002AF5D1202084F83D0084F83E004D
:101EE000002084F83C000320BDE8F08120680068F1
:101EF00036EA000004D00020B842CFD00020F3E73B
:101F00000120F9E710B500224FF6FF7300EB8204C1
:101F1000B4F8844324040BD49A4207D002F00F0390
:101F200000EB830041F40041C0F88413D0B210BD2F
:101F3000521CD2B2102AE9D31A46F7E77FB51C46E5
:101F4000012501AE0023009586E80E0002232A46F3
:101F5000214600F0E1FB04B0002070BD7FB51D46B6
:101F600090F81D33089C03B100240123CDE9003112
:101F7000CDE9022402230022294600F0CDFB04B063
:101F8000002070BD10B500F0E9FA002010BD827885
:101F9000012A07D1022202740122427400224282E5
:101FA0008182C2820022114600F00FB87FB51C4624
:101FB000012501AE0023009586E80E002A46214641
:101FC00000F0AAFB04B0002070BD70B504460120EB
:101FD000A3780546012B0BD0022B08D1204600F038
:101FE0001FF958B1032809D0022800D1A57070BD8F
:101FF000A160A28125760221A17070BDA57000218B
:10200000217670BD7FB51D4690F81D33089C03B145
:1020100000240123CDE90031CDE9022400231A4632
:10202000294600F079FB04B0002070BD1FB50023E5
:102030001446CDE900310822CDE902231A46214693
:1020400000F06AFB04B0002010BDFEF7E7BB000003
:1020500070B50546002005F54E7500BF00EB800405
:1020600004EBC00405EB4404E67B0A348E4201D045
:10207000FF2909D1A679964201D0FF2A04D1E4793B
:102080009C4206D0FF2B04D0401CC0B20228E5D3EE
:10209000FF2070BD102907D200EB8100B0F8841337
:1020A000C1F30E01C0F884130020704730B4857866
:1020B000029C012D0FD141F0800101740621417471
:1020C00003214282B1EB122F02D140F2094100E01C
:1020D00000218182C482224630BC1946FFF775BFB9
:1020E0000A8803781A440A80017808447047F8B5D2
:1020F0000E4600F11C040091054623464FF4007281
:102100000021FFF7D3FF002806D13246214628469A
:10211000BDE8F84001F0F6B8F8BD38B50D460091BD
:10212000044600F58E734FF480720021FFF7BEFF66
:10213000002844D194F81C1184F8261394F81D113A
:1021400084F82713B4F81E11A4F8281394F820116A
:1021500084F82A1394F8211184F82B1394F822118F
:1021600084F82C1394F8231184F82D13082908D02F
:10217000102906D0202904D0402902D0402184F81B
:102180002D13082D1BD9B4F82411A4F82E13B4F87C
:102190002611A4F83013B4F82811A4F8321394F8D7
:1021A0002A1184F8341394F82B1184F8351394F819
:1021B0002C1184F8361394F82D1184F8371338BD98
:1021C000F8B51C461646009341F4407200F58E7334
:1021D0001D460021FFF76AFF002814D16978032902
:1021E00011D129788A1EA24200D814460021A2B239
:1021F000AD1C04E06B5C891C06F8013B89B291427E
:10220000F8D300213170F8BD01004FF0000004D078
:10221000012901D0022901D0022070470120704716
:102220002DE9F84F0125017E04460B260927284693
:102230004FF007084FF0050A4FF00D090C2919D28D
:10224000DFE801F0B4060E26313C48606B7C899AC9
:10225000627904F110012046FFF7E8FE022012E047
:102260006179204600F0D7F9012804D0042871D004
:1022700002287FD09AE0207CE18A00F0800021B122
:1022800080283AD10320207690E0802814D02EE0D8
:10229000D4F8C403E0812379A2892046A168FFF71E
:1022A00085FE0420EFE72179204600F0B4F90128EB
:1022B00002D0052840D056E0277677E00090637979
:1022C000A2892046A168FFF79DFED4F8C403E081EF
:1022D0000620D8E76179204600F09DF9012806D054
:1022E000052807D0022808D0042809D05EE084F829
:1022F00018805BE00C2020761EE084F818A055E0E2
:10230000267652E00022237911462046FFF74EFE42
:10231000D4F8C403E0810820B5E72179204600F015
:102320007AF9012804D0042824D0052804D03DE0FF
:1023300084F81890002539E0032537E0009000224A
:10234000637911462046FFF75DFED4F8C403E081AF
:102350000A2098E70EE06179204600F05CF9012838
:1023600004D00228A8D0042804D01FE0002584F857
:1023700018901BE0267619E0617E491CC9B261768F
:10238000022902D82076A07010E0D4F8D4230621C8
:10239000204690470025657661792046FFF77AFE52
:1023A00021792046FFF776FE257002252846BDE8F4
:1023B000F88F00002DE9FE430446012640780025F1
:1023C0000D27B04604F58E7208280CD2DFE800F025
:1023D000042A3C686F86929908212046FFF79DFEEB
:1023E00010B103280DD097E094F82D03A07184F864
:1023F000018094F81D130091CDE9015094F81C332D
:1024000038E094F81E03401CC0B284F81E03032871
:1024100018D861792046FFF73DFE21792046FFF765
:1024200039FE59E012212046FFF777FEA8BB0220B3
:1024300047E000BF94F81E03401CC0B284F81E039E
:10244000032840D9277067E00121204601F06FF989
:1024500010B1032822D05FE00220FFF7F6FD84F8D8
:102460001C8303206070A07994F81D13CDE900153A
:102470004346029021798022204600F039FFA0795E
:1024800094F81D130091CDE9015094F81C33617943
:102490000022204600F02CFF3EE00EE027702EE0E8
:1024A00009212046FFF723FE38B9042009E0B4F8DB
:1024B0003A132046FFF71BFE10B10328BAD02BE0D9
:1024C0000520607028E061792046FFF7E3FD21795F
:1024D0002046FFF7DFFD657025701DE094F834138A
:1024E00006250AE0FF232046FFF76AFE38B10328DD
:1024F00005D011E094F8351307250029F2D1657055
:102500000AE094F8361331B1FF232046FFF758FE56
:1025100008B1032800D100263046BDE8FE8370B51F
:102520000E46040018D084F8CC230025C4F87C5350
:10253000C4F8805304F54874FEF722F9E57025705D
:102540006570A570A4F548740EB1C4F8D463204634
:1025500000F074F8002070BD022070BD10B5D0F8F6
:10256000D003FEF790FABDE81040FFF74DBE012101
:1025700080F82013002180F8211380F822130846E8
:10258000704710B50446012084F82103002084F828
:10259000200384F82303204600F0B5F82179204673
:1025A000FFF778FD61792046FFF774FD002010BD2C
:1025B00010B590F8CC03012802D10846FFF7F2FAD3
:1025C000C820FEF72BF9002010BDD0F8D003FEF78D
:1025D00052BA10B50124D0F8D003FEF740FA20B16A
:1025E000012805D0022803D101E0002400E00224E4
:1025F000204610BDD0F8D00301EB410202EBC1012F
:1026000000EB810090F83B1011B190F85400704736
:1026100090F855007047D0F8D003FEF723BAD0F8F1
:10262000C413491CC0F8C41301780B2905D1D0F894
:102630007C13002901D089690847704710B504460A
:1026400090F8CC0301281CD10F484FF0A041002284
:10265000C0F80043C4F8D003016008218160012163
:10266000C0E903120221C0E90612FEF744FB08B1DB
:10267000FEF7AFF80448FEF7EFF90146204600F0F8
:1026800024F8002010BD000028090020FEB508AF86
:1026900097E870008DE87000D0F8D003FEF705FAD7
:1026A000BDE8FE40FFF7B0BD002180F8231370475E
:1026B000012180F82313704710B5D0F8D003FEF73E
:1026C0009DFBBDE81040FFF79FBDC0F8C4137047E5
:1026D000D0F8D00301EB410303EBC10100EB810013
:1026E00090F83B1011B180F8542001E080F855209B
:1026F0000020704710B5D0F8D003FEF786FBBDE888
:102700001040FFF781BD10B5D0F8D003FEF793FB62
:10271000BDE81040FFF778BD2DE9FF410DF1280815
:1027200098E8F0008DE8F000D0F8D003FEF7F9F952
:1027300004B0BDE8F041FFF767BD03460220D3F8BF
:102740007C13C9692AB1012A05D189791846FFF796
:102750001EBCC979FAE77047D0F87C030549C06907
:10276000416505498165012100F8501F81700020F5
:102770007047000055534243504030202DE9F84F38
:102780000746D0F87C0301263546C4694FF00B0A92
:102790004FF00A0B94F850004FF009094FF007086A
:1027A0000C2845D2DFE800F0D20611252E485275DC
:1027B0007EA7AFCB84F86110022084F8500000950A
:1027C00063791F2204F1540159E061793846FFF71B
:1027D00022FF012802D002287ED03FE0E06D0028D1
:1027E00029D094F86000000601D503204BE00520B5
:1027F00049E0237962893846D4F88C10FFF79EFBB4
:10280000042040E021793846FFF705FF01284FD129
:102810006289E06D90420CD9D4F88C10801A114472
:10282000C4F88C10E0656BD023793846FFF786FB3F
:102830008CE00020E06563E00095637922893846EA
:10284000D4F88C10FFF78AFB06201CE0617938462B
:10285000FFF7E1FE012804D00228C8D0052815D0D2
:1028600074E02289E06D9042E3D9D4F88C10801A8C
:102870001144C4F88C10E06542D000956379384665
:10288000FFF76CFB62E084F850005FE084F850B022
:102890005CE023790D2204F178013846FFF74EFB06
:1028A0000820F0E721793846FFF7B5FE012802D06D
:1028B00005281DD04AE004F8505F3846A570D7F8C7
:1028C0007C13CC692179FFF780FE0D280CD12149BA
:1028D000A06F884208D100E036E0A16DE06F884229
:1028E00002D194F8840008B102262FE000262DE0E2
:1028F00084F850902AE000223846FFF71EFF38B9CE
:1029000084F8508022E001223846FFF716FF10B10C
:10291000042811D01AE061793846FFF76BFEC0F148
:102920000100C2B261793846FFF7D2FE2179002258
:102930003846FFF7CDFEDBE784F850A006E03846C6
:1029400000F015F8060001D184F850503046BDE87B
:10295000F88F000055534253A1220274FE224274A4
:102960000022428282820122C282FFF72EBB2121F5
:102970000174FF214174002141828182C1820A4693
:10298000FFF723BB70B5D0F87C130125CC69A17B80
:1029900021B1022902D003292ED127E02146FFF7D9
:1029A000DBFF00210546032801D01DB124E0217082
:1029B000002504E02078022801D9022001E02078D7
:1029C000401C2070002002230CE000BF00EB8002BE
:1029D00002EBC00204EB8202401C82F8923082F8C3
:1029E000C110C0B222788242F0D805E00021FFF782
:1029F000CEFA08B9E07BA073284670BD10B5144626
:102A0000D0F87C230078D3690B2801D0022010BDB8
:102A100001EB810000EBC10003EB80013422204672
:102A20009031FDF737FD002010BD70B50546D0F898
:102A30007C030026C469617939B12846FFF7A2FA00
:102A400061792846FFF726FB6671217939B128465E
:102A5000FFF798FA21792846FFF71CFB2671D5F875
:102A60007C03C06920B1FDF732FCD5F87C03C66158
:102A7000002070BDFEB50546D0F87C035023062229
:102A800001792846FFF7E4FA0646FF2823D0022EF4
:102A900021D20146284600F03FFEE0B94FF480778E
:102AA0003846FDF7E5FBD5F87C130446C8612000E5
:102AB00011D03946FDF742FD06EB860000EBC6005B
:102AC00005EB400090F84E130A0606D5E171B0F808
:102AD0005013618105E00220FEBDA171B0F85013D2
:102AE000218190F856130A0604D5E171B0F8580315
:102AF000608103E0A171B0F85803208100202073A9
:102B00006073A073A1792846FFF7FCF96071E17941
:102B10002846FFF7F7F920712846FFF71DFEA27936
:102B200042B3208930B395F81D1302260091CDE9F8
:102B3000016095F81C336179284600F0D9FBE279F1
:102B4000C2B16089B0B195F81D130091CDE9016063
:102B500095F81C332179284600F0CAFB2179002220
:102B60002846FFF7B5FD617900222846FFF7B0FD42
:102B70000020FEBD0320FEBD2DE9F0470746D0F83A
:102B80007C034FF0010AC469207B10B101282DD1CC
:102B90002CE1B4F8F800217801254FF000088842B4
:102BA0006FD200EB800101EBC00004EB8000022635
:102BB00080F89150B4F8F8004FF0050900EB80015F
:102BC00001EBC00104EB810292F8901009290DD2AB
:102BD000DFE801F0050C1F880DB10C0CFF0004208C
:102BE00082F89000D7F8C403C4F8FC0000E1C1B239
:102BF00038469F3200F08CF940B9B4F8F80000EB89
:102C0000800101EBC00004EB8000B6E002287DD01B
:102C100099E0C1B2384600F0ABFA10B1022831D0C9
:102C200091E0B4F8F80000EB800101EBC00004EB88
:102C3000800090F8921011B180F8C15001E080F846
:102C4000C180B4F8F820032002EB820101EBC2013D
:102C500004EB810181F89000B4F8F81001EB8102D7
:102C600002EBC10104EB810181F89180B4F8F81006
:102C700001EB810202EBC10104EB810181F892803A
:102C8000B6E0AAE0B4F8F80000EB800101EBC00068
:102C900004EB800090F89210022902D080F8C15015
:102CA00001E080F8C180B4F8F81001EB810202EB7A
:102CB000C10104EB810181F89090B4F8F80000EBB9
:102CC000800101EBC00004EB800080F89150B4F863
:102CD000F80000EB800101EBC00004EB800080F8FD
:102CE000926085E0C1B23846943200F0BBF900280A
:102CF0008CD1B4F8F80000EB800101EBC00004EBCC
:102D0000800080F89050B4F8F81000E008E001EB83
:102D1000810202EBC10104EB810181F8918031E075
:102D2000B4F8F81001EB810202EBC10104EB810160
:102D300081F890905CE0C1B238469C3200F0CFF947
:102D400020B1022823D004282DD051E0B4F8F80097
:102D500000EB800101EBC00004EB800090F89C10B8
:102D6000062901D002290BD1D7F8C413D4F8FC20CE
:102D7000891A42F21072914202D280F8906037E0D4
:102D800080F8905034F8F80F401C208030E0B4F800
:102D9000F810082001EB810202EBC10104EB810174
:102DA00081F8900024E0B4F8F80000EB800101EB1A
:102DB000C00004EB800080F89050B4F8F80000EBFD
:102DC000800101EBC00004EB800080F891600FE00F
:102DD000FFE7401CA4F8F8000AE0A4F8F880257387
:102DE000D7F8D42302213846904701E04FF0000A7B
:102DF0005046BDE8F08700002DE9F843D0F87C2369
:102E000001EB810303EBC103D269012502EB8304CB
:102E1000082794F890302E46052B22D000224FF040
:102E20000508062B02D0072B2AD10CE000230092C4
:102E30001A4600F0D7F80BE002280FD018E000BFC8
:102E400084F890701BE0002300921A4600F0B6F957
:102E50000028F1D184F89060002511E084F890807A
:102E60000EE004F19C0200F03AF920B1022807D0EC
:102E70000428E5D004E004F8906F02206070022579
:102E80002846BDE8F8832DE9F8430446D0F87C03D2
:102E9000089E0F46C56994F8200360B120780B287E
:102EA00009D107EB870000EBC70005EB800090F825
:102EB0009010012902D00220BDE8F8830621297371
:102EC00080F89010A5F8FA7039462046009600F078
:102ED00089F8D4F8C48340F271204FF001094643C9
:102EE00009E0D4F8C413A1EB0800B0EB061F0CD81E
:102EF00094F8200348B139462046FFF77DFF0128AA
:102F0000EFD085F80C900020D6E785F80C90D2E73A
:102F10002DE9F0411546D0F87C2302270026D4691C
:102F20004FF0010894F85220012A02D0022A56D10B
:102F300026E024208022E06584F860200A2284F8BC
:102F40006220C4F86360C4F86760A4F86B60122262
:102F500084F86320490184F8641084F8656084F87B
:102F6000666084F8670084F86860022084F8508006
:102F700084F8520004F110000127C4F88C002EE000
:102F8000FFF7FCFB07002AD122212846FDF7B4FAFF
:102F9000D4F88C00007800F01F006870D4F88C0022
:102FA000007840092870D4F88C004078000602D5DB
:102FB00085F8028000E0AE7054F88C0F1022816812
:102FC000C5F80310C068C5F80700216805F10C00BA
:102FD0001031FDF71AFA2068006AC5F81D0038465E
:102FE000BDE8F0812DE9F041154602461F46D2F8B2
:102FF0007C330220069EDC6994F85230012B06D007
:10300000022B2DD1BDE8F0411046FFF7B7BBB4F855
:10301000980010217043E065802084F860000A2049
:1030200084F8620004F16300FDF766FA282084F852
:103030006300280E84F86500280C84F86600280ACE
:1030400084F8670084F86850300A84F86A0084F8CD
:103050006B60012004F8500F0220A0700120E7638C
:10306000BDE8F08170B51646D0F87C230125D469FF
:1030700094F85220012A02D0022A2ED11AE0082008
:10308000E065802084F860000A2084F86200102146
:1030900004F16300FDF730FA252084F86300012075
:1030A00084F85000022084F8520004F11000C4F8A3
:1030B0008C0012E0FFF762FB05000ED154F88C0F74
:1030C0004188427849BA007862F31F4141EA0060C2
:1030D00030602068C08840BAB080284670BD70B5A6
:1030E000154602460E46D2F87C130220CC6994F8AD
:1030F0005210012914D0022911D131461046FFF790
:103100003DFB00280BD154F88C1F897801F00F018A
:1031100029702168097B69702168497BA97070BD9D
:103120000E258020E56584F860000A2084F862009E
:10313000102104F16300FDF7DFF9032084F8630038
:10314000700184F86400002084F8650084F866004B
:1031500084F8675084F86800012084F85000022049
:1031600084F8520004F11000C4F88C00012070BDF6
:1031700070B502460220D2F87C33DC6994F85230F4
:10318000012B06D0022B18D1BDE870401046FFF786
:10319000F5BA0025E56584F860500A2084F86200DD
:1031A000102104F16300FDF7A7F984F863500120B2
:1031B00004F8500F0220A070012070BD2DE9F041ED
:1031C000154602461F46D2F87C330220069EDC6973
:1031D00094F85230012B06D0022B2DD1BDE8F041DE
:1031E0001046FFF7CBBAB4F8980010217043E065A1
:1031F000002084F860000A2084F8620004F1630073
:10320000FDF77AF92A2084F86300280E84F8650017
:10321000280C84F86600280A84F8670084F868504F
:10322000300A84F86A0084F86B60012004F8500FBB
:103230000220A0700120E763BDE8F0810020704704
:10324000D0F87C230078D2690B2808D101EB8100EB
:1032500000EBC10002EB800090F8910008B1002063
:103260007047012070472DE9F8430446D0F87C03ED
:10327000089E0F46C56994F8200360B120780B289A
:1032800009D107EB870000EBC70005EB800090F841
:103290009010012902D00220BDE8F883072129738C
:1032A00080F89010A5F8FA70394620460096FFF78E
:1032B00085FFD4F8C48340F271204FF001094643E2
:1032C00009E0D4F8C413A1EB0800B0EB061F0CD83A
:1032D00094F8200348B139462046FFF78DFD0128B8
:1032E000EFD085F80C900020D6E785F80C90D2E757
:1032F000FEB508AF97E870008DE87000FFF7C6F9DB
:103300000020FEBD2DE9F74F82B00878029D4FF0F6
:10331000000B0C4685F83803487885F8390348884F
:10332000D84605F54E75FF2801D94FF480706880A6
:1033300008792871487968718879A871C879E87125
:10334000207A287229780920092900D02870092AB2
:103350007CD98146ADF800005FE069462046FEF763
:10336000BFFE04464078042854D12078092801D0B3
:1033700084F8009008EB880101EBC80005EB400AD7
:1033800020788AF80A0060788AF80B00A0788AF81A
:103390000C00E0788AF80D0020798AF80E00607938
:1033A0008AF80F00A0798AF81000E0790AF10A067D
:1033B0008AF81100207A307200271CE06946204606
:1033C000FEF78EFE04464078052814D17079012856
:1033D00002D1B079022830D02078072801D0072008
:1033E00020700AEBC70122461431029800F030F831
:1033F0007F1C8346FFB23079B84204D96888BDF893
:1034000000108842DAD83079B84211D808F10100AA
:1034100000F0FF08B8F1020F04D26888BDF8001070
:1034200088429AD82879022800D3022040450DD935
:10343000032005B0BDE8F08F08E0F0790028D0D176
:1034400020780928CDD084F80090CAE75846F0E7E4
:10345000F0B513780B7053784B7093788B70D478E9
:10346000CC7095888D800646937900208B71D5B1FC
:103470006FF30A058D8092884FF40077C2F30A0239
:10348000BA4200D33A461543A1F8045096F81D13EA
:10349000002904F0030108D001290BD0E14389077A
:1034A00000D153B1F0BD0320F0E7012902D0E14380
:1034B0008907F7D10BB1102BF4D90320F0BD000020
:1034C000FEB5022104468DF8001094F82123002057
:1034D000012A01D10322227022780D260827002517
:1034E0000C2A17D2DFE802F0061734E81669CC7C04
:1034F000848CA2E194F8200300280BD001202070D6
:10350000C820FEF7A2FD2046FFF7D6F884F81C532A
:10351000C4F8C853EAE094F8230301280DD0D4F886
:10352000C803B0F57A7F0CD994F81F03401CC0B2D1
:1035300084F81F03032878D875E084F81F5321709E
:10354000D4E00A30C4F8C8030A20FEF77EFDCDE0BF
:10355000D4F8D42312B10421204690476420FEF70A
:1035600074FD2046FFF735F884F81D030520207010
:1035700000212046FEF7C6FC607180212046FEF740
:10358000C1FC20710146A07994F81D230092CDE979
:10359000015094F81C3380222046FFF7A9FEA07941
:1035A00094F81D130091CDE9015094F81C33617912
:1035B00000222046FFF79CFE98E02046FEF7FAFE28
:1035C0008DF800009DF80000002808D184F82453ED
:1035D00094F83703012801D0072062E0277085E0C6
:1035E000D4F8D423002A46D0012120469047F5E79D
:1035F00094F83D13204600F0A8F8E0BB092050E005
:1036000094F83F034FF00A0580060CD501212046AF
:1036100000F0A9F88DF800009DF8000018B19DF8A1
:103620000000032862D1257060E03CE0D4F88013EC
:1036300009B3C4F87C5394F8471300BF04EB80022D
:10364000D2F8782312798A4206D104EB8000D0F8B0
:103650007803C4F87C0304E0401C10F0FF00EDD0B8
:10366000284600B3816820468847E0B906202070CC
:103670000321204600E039E0D4F8D423904735E018
:10368000D4F87C0378B10169204688478DF80000A2
:103690009DF8000020B19DF80000022803D025E02D
:1036A0000B20207022E0267020E0D4F87C03E8B1E3
:1036B00041692046884719E084F821532046FDF7E8
:1036C0005FF8D4F87C0320B1C16820468847C4F86D
:1036D0007C53D4F8D42312B105212046904794F8A6
:1036E0002203012804D02046FFF704F80020FEBD85
:1036F00084F82253204600F044F8F7E7002211B185
:10370000D0F8803313B10222104670470123C0F86D
:103710008033C0F87813F7E70246002092F83C3374
:103720008B4202D982F824137047022070478278B6
:10373000012A06D100220274052343744182828249
:10374000C28200221146FEF740BC8278012A06D1CF
:10375000002202740923437441828282C2820022C1
:103760001146FEF732BC8278012A06D1002202748B
:103770000323437441828282C28200221146FEF7F3
:1037800024BC10B50446FEF7B5FF01212046FEF724
:103790000FFF002010BD000001290AD005480229B2
:1037A00006D0042903D0052903D1032100E001211B
:1037B00001707047710000200020704730B58DB057
:1037C0001546012449B1012909D0022910D0032945
:1037D00018D004240DB0204630BD0024FAE701467D
:1037E0006A460E48FFF70AF90028F3D1019813E062
:1037F00001466A460948FFF701F90028EAD1BDF8F9
:10380000080009E001466A460448FFF7F7F8002877
:10381000E0D1BDF80800400A2860DEE7500500202E
:1038200030B58FB0054600930B46014601240C4885
:10383000FFF729FB68B101AA29460948FFF7DEF81E
:103840009DF81100042806D0282804D03A2803D176
:1038500001E0002400E003240FB0204630BD00004A
:103860005005002010B5014601240348FFF7E8FC8D
:1038700000B10024204610BD5005002030B58FB0A7
:10388000054600930B46014601240E48FFF7EBFC6A
:1038900078B101AA29460B48FFF7B0F89DF811004E
:1038A00004280AD0272806D0282806D03A2805D18F
:1038B00003E0002402E0022400E003240FB02046CD
:1038C00030BD00005005002070B5044606990A9EE0
:1038D000049D0D98012916D0E06840F04000E0609A
:1038E000204600F02BF8A16B1EB321F48031A163B8
:1038F000012D07D1A16841F00601A160A16841F046
:103900002001A16070BDA16B21F48031A163E16849
:10391000094A1140E160E16821F44011E1600128A9
:1039200003D1E06840F48010E060204600F006F823
:10393000DEE741F48031DAE7BFFFBDFF08B50022C2
:103940000D490092009B5B1C00938B420CD80369CD
:10395000002BF7DA0092026942F001020261009A3C
:10396000521C00928A4201D9032008BD0269D20785
:10397000F5D1002008BD0000400D0300816821F052
:10398000010181600020704700EB4110064AC0F839
:103990001025D0F8001521F0804141F00041C0F819
:1039A00000150020704700000000088008B5D0F81E
:1039B000402422F02E020092D20405D4012909D11C
:1039C000009941F4805103E021B9009921F480511C
:1039D000C0F84014002008BD816841F001018160F9
:1039E0000020704708B500220C490092009B5B1C28
:1039F00000938B420AD80369002BF7DA0092102259
:103A00000261009A521C00928A4201D9032008BD2B
:103A10000269D206F5D4002008BD0000400D030065
:103A200018B500230D4A0093009C641C0094944236
:103A30000CD80469002CF7DA0093202343EA8111A3
:103A400001610099491C0091914201D9032018BDE0
:103A500001698906F5D4002018BD0000400D03005F
:103A6000D0F8080480B2704708B5D0F84004009040
:103A7000C0F3414008BD406900F00100704718B52F
:103A8000002200EB41110092D1F80025D1F8003559
:103A9000C2F381428468DB0FA40600D51BB34FF448
:103AA0007A736AB1022A0BD0D1F8002542F0804225
:103AB000C1F80025D0F8100410F47F0F2BD00CE0D3
:103AC000D1F8002542F08042C1F8002582689206B4
:103AD00009D4C06A10F47F0F07D0D1F8000540F078
:103AE0000040C1F80005002018BDD1F8000520F005
:103AF0000040C1F80005D1F8000540F00040C1F8D1
:103B000000050098401C00909842ECD8D1F80005C0
:103B10000028F6DBE7E7D1F8000520F00040C1F807
:103B20000005D1F8000540F00040C1F800050098FC
:103B3000401C00909842D6D8D1F800050028F6DB4A
:103B4000D1E700002DE9F0431E46DDE90785002797
:103B500000EB41147B1EDDF82490C4F8083505B352
:103B6000012D39D0022D1CD0032D2ED05FF001077E
:103B7000D4F80C3543F00203C4F80C35D0F81834EF
:103B800001F00F0C012101FA0CF10B43C0F81834BD
:103B9000816941F00071816111062AD54FF400411D
:103BA00028E040F29D43C4F80C35130605D500BF4C
:103BB000D4F80C3543F4807318E0C36BDB05D7D51C
:103BC000D4F80C3543F0600310E040F29D63C4F874
:103BD0000C351306ECD4CBE740F22523C4F80C35A2
:103BE0001306C5D5D4F80C3543F4C073C4F80C35AE
:103BF000BEE70021FFF738FFB8F1020F04D1022819
:103C000002D04FF4003000E000204FF0FE5303EAF2
:103C100086534FF4F04606EAC22213434FF4402283
:103C200002EA85421343C9F30A0213430B430343D9
:103C3000C4F80035032D01D0012D05D1D4F80005BD
:103C400040F00050C4F800053846BDE8F083D0F8D5
:103C5000140480B27047F8B54C78C56B4FF480738C
:103C6000ED0515D50D799DB9012A01D06AB10FE096
:103C7000CD790DB1022D0BD100EB4415D5F80C65B3
:103C800026F07006C5F80C6502E04D79012D0DD0C7
:103C90004E697EB10D8977197F1EB7FBF5F7BFB26C
:103CA0009F4208D91F462B020B6104E02146FFF713
:103CB0006BFE6EE00127CB781BB10B897B430B6158
:103CC00001E033460E61C3F312056FF0604303EA6F
:103CD000C7431D438B7A4FF0C04606EA43731D432A
:103CE00000EB4413C3F8105512B1CC68C3F8144567
:103CF000D0F80844D3F8005544F3000425F00055EB
:103D0000C3F80055D3F80055641C45EA4474C3F861
:103D10000045D3F8004524F080440094CC78002C72
:103D2000009C02D044F4004401E024F4004444F038
:103D300000440094C3F800455ABBCA784ABB4A699C
:103D40003AB3CB7933B1012B0FD0022B02D0032B26
:103D500017D10AE0D21CC36AC2F38F029BB293420E
:103D60000FD2826942F020020AE0D21CD0F810344F
:103D7000C2F38F029BB2934203D2826942F0806207
:103D80008261002200928A8A93B24A78C96800F060
:103D900035F90020F8BD00002DE9F0410025DDF8DF
:103DA0001880174604462E46C0F8005E806B40F42B
:103DB0000010A063A06B20F40020A063A06B20F48F
:103DC0008020A063E06BC00501D5012B04D0D4F89E
:103DD000000420F0040103E0D4F8000440F00401E2
:103DE0002046C4F800141021FFF71AFE00B1012587
:103DF0002046FFF7F7FD00B101250020411E06E037
:103E000004EB4012C2F80815C2F80C65401C87424A
:103E1000F6D8A6616161E06BC00506D54FF400706D
:103E200060620C48A0620C4804E0802060620B488D
:103E3000A0620B48C4F80001B8F1000F03D1A069DB
:103E400040F01000A061A06906490843A06128461F
:103E5000BDE8F081000200010003E0008000600086
:103E6000E0004000080020A3D0F8002422F0030264
:103E7000C0F80024D0F8002401F003031A43C0F86E
:103E80000024012902D0022903D006E04BF680313C
:103E900001E041F27071C0F80414002070474169DC
:103EA00080690840704730B503460846940802F020
:103EB0000301002203F5805303E01D6840F8045B12
:103EC000521CA242F9D300290BD01C680022D50055
:103ED00024FA05F3491E521C090400F8013B090CA1
:103EE000F5D130BD38B50446D0F8400420F02E009E
:103EF000009040F48070C4F84004642004F58864A5
:103F0000FCF78CFC009820F4807020600A20FCF7FD
:103F100085FC002038BD70B50446C068002520F03F
:103F2000C040E060012901D079B120E0E06840F0B4
:103F30000050E0600120FCF771FC60696D1C10F01E
:103F4000010F10D1322DF5D30DE0E06840F0804034
:103F5000E0600120FCF762FC60696D1C10F0010F4D
:103F600001D0322DF5D3322D01D0002070BD0120BB
:103F700070BD38B5002504460095806820F001002A
:103F8000A06010212046FFF74BFD00B1012520461F
:103F9000FFF728FD00B10125002004EB4011D1F806
:103FA000002522F0802242F08042C1F80025401C0A
:103FB0000F28F2D900204FF47A7304EB4011D1F8A6
:103FC000002522F4004242F04042C1F80025009A48
:103FD000521C00929A4203D8D1F80025002AF6DB41
:103FE000401C0F28E9D94FF0FF30C4F81404606179
:103FF000A06840F00100A060284638BD10B5029CC2
:1040000074B9DB1C9C0800EB0230002300F58050E3
:1040100004E000BF51F8042B02605B1CA342F9D3FB
:10402000002010BDFEE70907090E002804DB00F19F
:10403000E02080F80014704700F00F0000F1E0204D
:1040400080F8141D7047000010B504460020E07091
:10405000401EE062204601F06CF908B1042010BD5A
:1040600004F22E2001F008F8A0F52A41553901D0BC
:10407000032010BD94F83000E92805D0EB2814D1B6
:1040800094F83200902810D104F1660000F0E9FFA6
:104090000749B1EB002F06D004F1820000F0E1FFE8
:1040A0000449884201D1002010BD022010BD00004B
:1040B0000046415446415433F0B50022144D134696
:1040C00005EB021426685EB10768BE4209D1666836
:1040D0008768BE4205D1A4684669B44204D000E0B6
:1040E0000123521C022AEBD3022A01D069B904E051
:1040F0004BB9022907D01220F0BD05EB02108089D0
:10410000B0F5807F01D00020F0BD1020F0BD000090
:104110002C0C002030B50021054B0C4603EB01129E
:104120001568854200D11460491C0229F6D330BDC0
:104130002C0C00200268490AC06A5289B1FBF2F1D6
:10414000001D04C81AB1914203D3891AF8E7002070
:1041500070470068084470474269891E921E8A426F
:1041600001D800207047826A408901FB0020704717
:104170002DE9F04105680F00804606D000F09EFE54
:10418000022809D20120BDE8F081EE6816B1686905
:10419000B04207D8012605E0411CF4D0696981428C
:1041A000F1D83E4634466869641CA04202D8022415
:1041B000022E0AD32146404600F080FE38B1012885
:1041C000E1D0411CDFD0B442EDD10020DBE74FF05D
:1041D000FF3632462146284601F0C4F830B957B1BF
:1041E00022463946284601F0BDF820B101280FD0FB
:1041F00001242046C7E7EC60D5E90401891E884206
:1042000001D8401E2861287940F001002871F0E7AC
:104210003446EEE72DE9F0410E4624300D680446A1
:104220000B22202101F07EF80020014608232A5CA1
:10423000401C202A12D92F2A0BD05C2A09D02E2A02
:1042400001D0994214D30B2B34D02E2A32D10CE05A
:10425000401C2B5C2F2BFBD05C2BF9D0284430600A
:1042600041B32078E52831D032E008210B23DEE786
:10427000A2F181077D2F13D82F5C401CA7F1400CC1
:10428000BCF13F0F04D3A7F1800CBCF17F0F11D21A
:10429000A3F1010C61450DD26254491C675413E02F
:1042A0000FA700E07F1C97F800C0BCF1000F04D0FE
:1042B0009445F7D10620BDE8F081A2F16107192FDE
:1042C00001D8203AD2B26254491CB0E705202070D0
:1042D000202A01D8042000E00020E0720020EAE754
:1042E000222A2B2C3A3B3C3D3E3F5B5D7C7F00000D
:1042F000401E022812D20A4901EB00118889B0F54C
:10430000807F05D008B1401E80B2888110B103E0E3
:104310000020FAE700200860002070470220704764
:104320002C0C00202DE9F04104460021056800F026
:10433000D8F8002826D12846E16900F0FAFF0200EB
:104340001FD1206A017899B1C17A01F03F01A171B2
:10435000C17A09070FD404F124010B2610F8013BA0
:1043600011F8017BDB1B761E04D0002BF6D002E097
:10437000042206E02BB10021204600F005F80200DF
:10438000D9D01046BDE8F0812DE9F04705464769D0
:104390000468C0698946203710B1B7F5001F02D301
:1043A0000420BDE8F087F90560D1401CE861A969E7
:1043B0004FF0000829B16089401E10EA572F05D040
:1043C00054E02089B0EB571F1DD94FE0284600F07C
:1043D00075FD064601281BD9701C33D06069B042B8
:1043E0003ED8B9F1000F0ED02846A969FFF7C0FEEC
:1043F00006000BD0012E0BD0701C23D0204601F0FC
:10440000C5F8F8B906E0C5F81C80C9E70720C8E779
:104410000220C6E74FF40072002104F1300000F0E2
:1044200081FF4FF0000831462046FFF795FE4FF020
:104430000109E0620DE000BF84F80390204601F01E
:10444000A5F808B10120ACE7E06A08F10108401CBA
:10445000E06261894145EFD8E16AA1EB0800E062C2
:1044600031462046AE61FFF777FEE861C7F30800EA
:10447000204430306F612862002092E770B5044616
:104480000021066800F02DF80DE03046E16900F0EB
:1044900050FF50B9206A0078E52809D040B10121C9
:1044A0002046FFF771FF0028EFD0042807D007E06F
:1044B0003046E16900F03DFF050003D00FE0072022
:1044C00005460CE020220021206A00F02BFF0B2281
:1044D00004F12401206A00F01BFF0120F07028463F
:1044E00070BD2DE9F04107680E460546B1F5001F85
:1044F00036D2F00634D16E61AC6824B9387803281E
:1045000005D37C6A1CB178894FEA402812E03889CB
:10451000B0EB561F24D9786A12E0284600F0CEFC92
:104520000446401C1AD0022C1AD37869A04217D92D
:10453000A6EB080646452146EFD23846FFF70CFEAB
:10454000C5E9064060B100EB5620E861C6F30800FB
:104550003844303028620020BDE8F0810120FBE7BC
:104560000220F9E7084910B50B5C002253B901227B
:104570000A540A1801EB8000127A4068016810465C
:1045800088470246104610BD4C0C002030B4054C44
:10459000231804EB80001B7A406804691846A4467F
:1045A00030BC60474C0C002030B4054D2C1805EB96
:1045B0008000247A406885682046AC4630BC60475D
:1045C0004C0C0020044A111802EB8000097A406864
:1045D00042680846104700004C0C002030B4054DDE
:1045E0002C1805EB8000247A4068C5682046AC464C
:1045F00030BC60474C0C002038B5044600F0EBF9A5
:1046000000280CD16946204600F0E9FF002806D1B9
:104610002069FFF76DFE002801D10021216038BD1F
:104620002DE9F74181B0904602980090684600F06D
:10463000A6FC040003D50B2004B0BDE8F0810D4EAC
:10464000002756F824501DB12846FFF763FD2F7050
:104650000198002800D0077046F8240002D0B8F175
:10466000010F01D00020E7E7002201A902A800F015
:10467000C1FAE1E7880000202DE9F74392B0050078
:104680000BD002F03F063246694613A800F0B2FA9A
:1046900004004FF0000804D0EBE0092015B0BDE89D
:1046A000F0830098049004A8139900F0CDFB040057
:1046B0000ED19DF83F00000601D5062408E07008E1
:1046C00001D0012100E0002104A8FFF7F5FC044619
:1046D00016F01C0F5DD04FF00109C4B1042C10D1AD
:1046E0000020674902E0401C022804D201EB0012BE
:1046F0001268002AF7D1022807D004A8FFF7BEFEEF
:10470000044646F008065CB1B3E01224B1E09DF81F
:10471000160010F0110F47D1700701D50824A8E04A
:10472000300747D500F029FC07460C9839460E3073
:1047300000F0DBFE0C983946163000F0D6FE0C98DF
:104740002021C1720C99009800F078FC07460022E5
:104750000C99009800F0B5FE0C9800211C3000F078
:10476000C4FE009880F8039017B3D0F82C90002274
:10477000394604A800F06BFE04007AD1494600983F
:1047800000F0D7FD04000098A7F10107C7600DD025
:104790006FE0E4BB9DF81600C10601D5042468E073
:1047A000B10703D5C00701D0072462E0300701D567
:1047B00046F040060098C06A68620C98A8627008CB
:1047C00001D0012100E0002104A800F0F7FB2861DE
:1047D000B0B30C99009800F031FCA8600C981C3024
:1047E00000F03FFCC5F82C80E8600099296005F1D5
:1047F0003000C988A9802E7585F81580C5F82080FD
:104800004FF4007200218146C5F8188000E030E0C6
:1048100000F088FDB0062ED5EE6866B3AE61009854
:10482000A968408947020FE0284600F047FB01468F
:10483000012800D80224481C03D0F61B24B105E04F
:104840001BE00124F61B01E0BE42EDD8E96184B90A
:10485000F00510D00098FFF77FFC70B100EB5622F6
:104860002A620098012349464078FFF79DFE10B167
:104870000124C5F80080204610E70224F9E7000073
:104880002C0C00202DE9FE4F884600211960994626
:104890001546044602A900F0A2FE002812D1607D50
:1048A00000280FD1207DC0070BD0E168A069012747
:1048B000081A4FF0020A04F1300B854200D9054670
:1048C00084E00720BDE8FE8FA169C80566D1029883
:1048D0004089401E10EA512611D129B1E06A28B161
:1048E0002046FFF727FC05E0A06803E02046E169C9
:1048F00000F0E4FA02281BD3411C4AD0E061E169D0
:104900000298FFF729FC98B130440190680A0090A2
:1049100025D0029932184889824201D9801B009023
:10492000DDE9003248784146FFF73EFE88BB03E0F0
:1049300084F815A00220C5E7207D00060CD5216A69
:104940000198081A0099884206D208EB40204FF4DB
:104950000072594600F0DCFC009846022CE0226A06
:104960000198824218D0207D00060AD502980123C2
:1049700059464078FFF732FE58B9207D00F07F009D
:1049800020750298012359464078019AFFF70CFEE2
:1049900010B16775012095E701982062208BC0F364
:1049A0000800C0F50076AE4200D92E460119324605
:1049B0004046303100F0ACFCA069B0443044A06106
:1049C000D9F800008119AD1BC9F80010002D7FF443
:1049D0007BAF002076E7F8B50446694600F0FFFD9E
:1049E00000280ED1217D4A060BD508060ED5009869
:1049F000226A0123407804F13001FFF7EFFD08B18E
:104A00000120F8BD207D00F07F00207500F0B5FA90
:104A10000646616A009800F08CFC0028F1D1A56A76
:104A20002946E87A40F02000E872A268206800F089
:104A300048FD05F11C00E16800F057FD314605F125
:104A4000160000F052FD002105F1120000F055FDA6
:104A500000980121C17000F055FD217D01F0BF01DA
:104A60002175F8BD2DE9FE4F0446002088461860E8
:104A70009946154602A9204600F0B1FD002806D14E
:104A8000607D002803D1207D800702D40720BDE887
:104A9000FE8FA069012742194FF0020A04F1300B82
:104AA000824200D2C5439BE0A169C80575D1029836
:104AB0004089401E10EA512618D129B1E06A38B168
:104AC0002046FFF737FB07E0A06838B9002100E077
:104AD000E1692046FFF74CFB00287DD001282DD04E
:104AE000411C54D0E061A16801B9A060207D00069E
:104AF0000BD50298226A012340785946FFF76EFDD4
:104B0000A0BB207D00F07F002075E1690298FFF7CF
:104B100023FB98B130440190680A009027D03218E6
:104B2000029841898A4201D9891B0091DDE900324E
:104B300040784146FFF752FDC0B903E084F815A064
:104B40000220A4E7216A0198081A009988420AD233
:104B500008EB40214FF40072584600F0D9FB207D4D
:104B600000F07F0020750098460228E00FE0216ADF
:104B7000019881420FD0E168A06988420BD2029867
:104B8000012359464078019AFFF70EFD18B1677569
:104B900001207CE701E001982062208BC0F308002F
:104BA000C0F50076AE4200D92E462044324641463A
:104BB000303000F0ADFB207D40F080002075A06912
:104BC000B0443044A061E168884200D80846E06003
:104BD000D9F80000811900E005E0AD1BC9F800100C
:104BE000002D7FF461AF207D40F040002075002053
:104BF0004DE700002DE9FF41002790460E460F606B
:104C000000F0BDF9050003D50B2004B0BDE8F0812C
:104C10008A4850F825409CB13460207808F0FE06A0
:104C200020B16078FFF7CEFCC1070BD02770E8B247
:104C3000B8466070FFF796FCC10708D00320E4E790
:104C40000C20E2E70EB1400704D40020DDE71EB1DE
:104C5000400701D50A20D8E7002631462046FFF755
:104C6000F3F9022822D100254FEA0D0704EB0510C5
:104C700090F8F21100F5F77019B1083000F0F1F971
:104C800000E0002047F825006D1C042DEED3002520
:104C900057F8256036B131462046FFF7D5F902288E
:104CA00001D203E003206D1C042DF1D3042809D0A8
:104CB00002286DD204F13B0000F0DEF9B0F5007F70
:104CC00066D101E00120A0E704F1460000F0D4F92C
:104CD00018B904F1540000F0C4F9A06194F84050F0
:104CE000A570012D01D0022D52D1454394F83D000D
:104CF0006081E8B3411E08424AD104F1410000F04E
:104D0000BBF92081000743D104F1430000F0B4F95E
:104D1000070004D104F1500000F0A3F9074604F1A4
:104D20003E0000F0A9F9010032D02389481900EBB8
:104D3000131297422CD3B81A6789B0FBF7F0B8B1B9
:104D400003274FF6F57C604500D8022740F6F57C36
:104D5000604500D80127801C3244A2623144606162
:104D6000C4E90761032F15D013B12944616200E043
:104D70000EE0022F1FD000F0010100EB400001EB1C
:104D8000500000BFA16900F2FF10B1EB502F14D208
:104D90000D203AE704F15A0000F06EF90028F7D12F
:104DA00020890028F4D104F15C0000F05AF9606217
:104DB00060698000E6E74000E4E74FF0FF302061E3
:104DC000E06080202071032F2CD104F1600000F0FE
:104DD00053F9012826D1711C204600F0AAFA08BB1D
:104DE00084F8048004F22E2000F046F9A0F52A4150
:104DF000553917D104F1300000F033F910498842D9
:104E000010D104F5057000F02CF90E49884209D143
:104E100004F5067000F025F9206104F5077000F034
:104E200020F9E06005492770091F0888401C0880A8
:104E3000E0802046FFF76EF907E7000088000020B9
:104E4000525261417272416173B50446056801981E
:104E500001E0401C019001782F29FAD05C29F8D09C
:104E60000021A16001980078202806D2802084F8D3
:104E70002F002046FFF735FB7CBD01A92046FFF738
:104E8000C9F90028F8D12046FFF74CFA94F82F1002
:104E900028B10428F0D14907EED405207CBD49078C
:104EA000FCD4A079C006F8D5A08AC0F30800411947
:104EB0002846303100F0C2F8A060DEE72DE9F0416D
:104EC00004680D4602290BD36069A84208D92078EE
:104ED0004FF0FF36012807D002282BD0032839D005
:104EE00001263046BDE8F081206A05EB550700EB4E
:104EF0005721204600F01DFA0028F2D1C7F3080020
:104F000020447F1C90F83080206A00EB5721204617
:104F100000F00FFA0028E4D1C7F30800204490F80D
:104F2000301048EA0120E90701D00609D9E7C0F3AB
:104F30000B06D6E7206A00EB1521204600F0F9F9B0
:104F40000028CED1E8B204EB4000303000F094F8F5
:104F50000646C6E7206A00EBD511204600F0E9F9C5
:104F60000028BED140F2FF1000EA85002044303016
:104F700000F077F820F07046B3E70020704710B5D6
:104F800004464FF0FF302268002A13D0114600E09B
:104F9000491C0B78212B0ED33A2BF9D112F8013B87
:104FA000303B0A2B06D28A4204D1002B02D1491C85
:104FB0001846216010BD002010BD0000F0B502466B
:104FC0001D4BD2F80050002003EB00142668AE42BF
:104FD00007D166689768BE4203D1A4685669B44297
:104FE00002D0401C0228EFD3022814D1002002E096
:104FF000401C022804D203EB00142468002CF7D1D3
:1050000002280ED003EB0014256095686560526994
:10501000A2600022A281002903EB0011898902D03D
:1050200019B10020F0BD491C01E04FF4807103EB81
:105030000012401C9181F0BD2C0C002070B506467A
:105040000D4601F11A0000F017F8044630780328E5
:1050500005D105F1140000F00FF844EA00442046A1
:1050600070BDC178827842EA01214278007842EA34
:10507000012140EA012070474178007840EA012090
:1050800070470000FBF7F2FEFCF728FEFCF7A2FDDC
:10509000FCF7D6FDFCF790FDFCF7EEFD642305223E
:1050A0004FA15248FCF790FA514C524E0027524DF6
:1050B000FCF702FE307802287DD128780028F7D14D
:1050C0000120287002464D494D48FFF7A9FA20708B
:1050D00028B964231D224BA14448FCF775FA6423C8
:1050E0000D2250A14148FCF76FFA0A2251A1544801
:1050F000FFF7C2FA207010F0FF0FF6D164231822D8
:1051000050A13A48FCF760FA3B4B12221B1D191DB7
:105110004B48FFF7A7FC207028B9642319224FA140
:105120003248FCF751FA4648FFF766FA207028B972
:1051300064231B2250A12D48FCF746FA6423122257
:1051400054A12A48FCF740FA01223AA13C48FFF753
:1051500093FA207028B96423182253A12348FCF73E
:1051600033FA254B12221B1D191D3548FFF78AFB08
:10517000207098B96423182251A11C48FCF724FA26
:10518000A8881D4982B2642308311848FCF71CFA2C
:10519000642304223EA11548FCF716FA2848FFF7BD
:1051A0002BFA207010B96423192200E003E04AA111
:1051B0000E48FCF709FA307830B964230F224DA16C
:1051C0000A48FCF701FA2F70307803287FF470AF9B
:1051D00064230F224BA10548FCF7F6F92F7067E70F
:1051E00068656C6C6F20C4E3BAC30000AC0000209B
:1051F0006C00002071000020000000206D000020E5
:10520000F00000204D6F756E742074686520555352
:105210004220666C617368206472697665210D0AAC
:10522000000000006F70656E2074657374210D0AB4
:1052300000000000746573742E7478740000000020
:10524000200300206F70656E207465737420737581
:10525000636365737366756C210D0A0077726974F8
:10526000652066696C652073756363657373667525
:105270006C210D0A00000000636C6F736520666985
:105280006C65207375636365737366756C210D0AB5
:105290000D0A0000726561642066696C65207465A2
:1052A0007374210D0A0000006F70656E2066696CD2
:1052B00065207375636365737366756C210D0A00F1
:1052C000726561642066696C6520737563636573DC
:1052D0007366756C210D0A00636C6F7365206669D7
:1052E0006C65207375636365737366756C210D0A55
:1052F00000000000CEB4BCECB2E2B5BD75C5CC2157
:105300000D0A0000B6CFBFAAC1ACBDD3210D0A0063
:10531000002A05D011F8013B00F8013B521EF9D1DB
:10532000704700005FFA81F100F8011B521EFBD1AB
:10533000704770B50446C06A0D460026A8420FD0DB
:10534000204600F023F906000AD1607801232A469E
:1053500004F13001FFF728F908B1751E0126E56256
:10536000304670BD2DE9F047022617460D4604462B
:10537000022969D36069A84266D920784FF00109F3
:10538000012804D0022836D003285DD143E0216AE9
:1053900005EB550801EB58212046FFF7CAFF060030
:1053A00052D1C8F308002044303008F10108E90761
:1053B00004D00178FAB262F31F1100E0394601709F
:1053C00084F80390216A204601EB5821FFF7B1FFD2
:1053D000060039D1C8F3080020443030E90702D074
:1053E000C7F3071105E00178C7F3032201F0F001CC
:1053F0001143017026E0206A00EB15212046FFF7DB
:1054000098FF060020D1E8B204EB4000B9B230307A
:1054100000F073F816E0206A00EBD5112046FFF784
:1054200088FF060010D140F2FF1000EA85002044FA
:1054300030300546FFF715FE67F31B00014628468E
:1054400000F053F884F803903046BDE8F0872DE96A
:10545000F041056813460E46074602292DD36869B8
:10546000B0422AD93BB14FF0FF3219462846FFF728
:1054700079FF00281FD131463846FFF71FFD040091
:1054800018D0012C19D0601C19D0002231462846B2
:10549000FFF768FF00280ED1D5E90410821E914263
:1054A00005D2491C2961297941F00101297126465B
:1054B000B042E0D80020BDE8F0810220FBE70120E7
:1054C000F9E770B50C460646154691B204F11A008C
:1054D00000F013F83078032806D1290C04F11400E9
:1054E000BDE8704000F009B870BD0170090A417054
:1054F000090A8170090AC17070470170090A417078
:105500007047000070B5044600F040F8050036D141
:10551000207803282CD12079012829D1420204F1D6
:10552000300000210646FFF7FDFE4AF6552104F241
:105530002E20FFF7E2FF13493046FFF7D6FF12494E
:1055400004F50570FFF7D1FF04F506702169FFF738
:10555000CCFF04F50770E168FFF7C7FFE26901239C
:10556000521CE26260783146FFF738F80020207163
:10557000002260781146FFF709F800B1012528469E
:1055800070BD000052526141727241612DE9F041DB
:105590000446C0780027F8B1E56A04F1300160786C
:1055A00001232A468846FFF719F808B1012713E0BE
:1055B0000020E070206AA169281A88420CD2A678DF
:1055C00008E0A0690123054460782A464146FFF7B8
:1055D00005F8761E022EF4D23846BDE8F08170B58B
:1055E0000E4604004FF009050CD0206850B1017838
:1055F00041B1A188C288914204D14078FEF7E2FF10
:10560000C00703D000203060284670BD0025206808
:10561000F9E74FF04070E1EE100A7047B937000823
:1056200065380008213800087D380008BD370008BB
:105630000000000000000000010203040607080942
:1056400000000000010203044D5343006C560008A3
:1056500000000020AC000000C4010008185700083A
:10566000AC0000200C120000E00100080000000067
:105670000000000068656C6C6F20C4E3BAC30000D2
:10568000000000000000000000000000000000001A
:10569000000000000000000000000000000000000A
:1056A00000000000000000000000000000000000FA
:1056B00000000000000000000000000000000000EA
:1056C00000000000000000000000000000000000DA
:1056D00000000000000000000000000000000000CA
:1056E0000100000010000000000000000024F40091
:1056F00000000000000000004856000808000000FC
:10570000752A00082B2A000885290008792B000833
:085710003D320008000000001A
:040000050800018965
:00000001FF
